:020000040800F2
:1000000020050020010100088B200008711F000856
:1000100089200008BD090008D9220008000000005E
:100020000000000000000000000000008F20000819
:10003000F7090008000000008D200008912000084A
:100040001B0100081B0100081B0100081B01000820
:100050001B0100081B0100081B0100081B01000810
:100060001B0100081B0100081B010008C109000852
:100070001B0100081B0100081B0100081B010008F0
:100080001B0100081B0100081B0100081B010008E0
:100090001B0100081B0100081B0100081B010008D0
:1000A0001B0100081B0100081B0100081B010008C0
:1000B0001B0100081B0100083D2100081B0100086E
:1000C0001B0100081B0100081B0100081B010008A0
:1000D0001B0100081B0100081B0100081B01000890
:1000E0001B0100081B0100081B010008DFF80CD0F1
:1000F00000F068FB00480047992700082005002011
:100100000648804706480047FEE7FEE7FEE7FEE7B1
:10011000FEE7FEE7FEE7FEE7FEE7FEE7F520000864
:10012000ED000008202A04DB203A21FA02F0002129
:10013000704721FA02F3D040C2F1200291400843F7
:1001400019467047D2B201E000F8012B491EFBD2DC
:1001500070470022F6E710B513460A4604461946D2
:10016000FFF7F0FF204610BD30B480EA010202F034
:10017000004530F0004221F0004013D090B1C30D93
:10018000D40DC2F31601C0F31600E41A41F40001C5
:1001900040F400027D34914201D3641C00E0490028
:1001A000002C02DA30BC002070474FF4000000231E
:1001B000914201D3891A034340084FEA4101F7D124
:1001C00051B1914202D14FF0004105E002D24FF00F
:1001D000010101E06FF0010103EBC450284430BC81
:1001E00000F003BA2DE9FE4F804681EA0300C00FFC
:1001F0000C46009021F0004123F00045B8EB0200CE
:10020000A94105D24046214690461C460B4602466F
:1002100023F00040104347D0270DC7F30A00C3F373
:100220000A510290401A019040286BDAC3F3130080
:1002300040F4801B0098924620B10023D2EB030AC1
:1002400063EB0B0B01985946C0F14002504600F099
:10025000ABF906460D4650465946019A00F0B3F9EF
:1002600010EB08006141002487EA115284EAE77329
:100270001A4340D0009A62B3019A012A4FEA07520A
:1002800015DC001B61EB02014FF0004202EA07524D
:10029000CDE90042001C41F5801132462B4600F0AA
:1002A000EAF903B0BDE8F08F40462146F9E7001BAC
:1002B00061EB0201001C41F5801300185B4120181E
:1002C000A2F5001747EB030140EAD570B6196D415E
:1002D00011E06D084FEA360645EAC0754FEA07524D
:1002E000001B61EB0201001C41F5801149084FEA37
:1002F00030000019514132462B4603B0BDE8F04FA3
:1003000000F0AAB90098012240000023D0EB0202BD
:1003100063EBE073009821464FEAE074B8EB00000D
:1003200061EB0401E9E783F000435BE781F0004102
:1003300058E72DE9FE4F81EA030404F0004421F060
:10034000004100944FF0000B23F0004350EA0104F9
:100350005ED052EA03045BD0C3F30A54C1F30A55DA
:100360002C44A4F2F3340194A0FB0254C1F3130112
:1003700041F48011C3F3130343F4801301FB0244DF
:1003800000FB034E840A970A44EA815447EA8357E4
:10039000A4FB076802958D0A05FB07854FEA932C9D
:1003A00004FB0C542705029D4FEA065847EA16370E
:1003B000B5EB08056EEB070C870E920E47EA811726
:1003C00042EA8312A7FB0201B6EB0B0164EB0004C7
:1003D0002B0D43EA0C335E1844EB1C50DA465146B1
:1003E000E7FB0201C5F313044FEA0B3343EA14534E
:1003F0004FEA0432019C43EA0603A4F10C04029480
:10040000009CCDE900B400F036F903B0BDE8F08FF0
:1004100000200146F9E72DE9F04D81EA030404F0DC
:10042000004B21F0004514464FF0000A23F0004134
:1004300050EA050220D054EA01021DD0C5F30A5744
:100440000246C5F31303C1F31300C1F30A5640F487
:10045000801543F48013A7EB0608101BD64608F25C
:10046000FD3873EB050002D308F1010801E0921892
:100470005B41B8F1000F03DA00200146BDE8F08DC2
:1004800000204FF48011064684460EE0171B73EBE4
:10049000050705D3121B63EB050306434CEA010C69
:1004A00049084FEA300092185B4150EA0107EDD14C
:1004B00052EA030012D082EA040083EA05010843ED
:1004C00005D0101BAB4106D20122002306E000221A
:1004D0004FF0004302E06FF0010253101AEB0600E8
:1004E0004CEB085110EB0A0041EB0B01BDE8F04D5D
:1004F00000F0B2B896230022114600F07FB80EB586
:1005000040F2334102910021CDE900110A460B4629
:1005100000F0B1F803B000BDC1F30A5210B5C1F349
:10052000130140F2FF3341F480119A4201DA0020B6
:1005300010BD40F233439A42A2F2334203DC5242EE
:10054000FFF7F0FD10BD904010BD00F0004230F00C
:1005500000400AD0C10D01F56071C0F3160042EAF7
:100560000151C208400711437047002001467047FF
:1005700001F0004330B421F0004150EA010206D0FE
:100580000A0DA2F56072C1F31301002A02DC30BC2F
:1005900000207047440F44EAC104C100E01830BC99
:1005A00000EBC25000F021B8202A04DB203A00FA08
:1005B00002F1002070479140C2F1200320FA03F3BA
:1005C000194390407047202A06DBCB17203A41FAA6
:1005D00002F043EAE07306E041FA02F3D040C2F1D0
:1005E000200291400843194670470029A8BF704770
:1005F000401C490008BF20F00100704710B4B0FA59
:1006000080FC00FA0CF050EA010404BF10BC7047F3
:1006100049B1CCF1200421FA04F411FA0CF118BF0D
:10062000012121430843A3EB0C01CB1D4FEA0061DC
:100630004FEA102042BF002010BC704700EBC350AF
:1006400010440029A4BF10BC7047401C490008BFDB
:1006500020F0010010BC704710B5141E73F10004A7
:1006600008DA401C41F1000192185B411A4301D1A4
:1006700020F0010010BD2DE9F04D92469B4611B1CE
:10068000B1FA81F202E0B0FA80F220329046FFF730
:100690008BFF04460F4640EA0A0041EA0B0153462D
:1006A0005A46084313D0114653EA010019D0C8F145
:1006B00040025046FFF736FD05460E465046594665
:1006C0004246FFF771FF084305D0012004E02046B1
:1006D0003946BDE8F08D0020054346EAE0762C431C
:1006E00037430A986305E40AA0EB08000022FD0ADC
:1006F00044EA47540A3002D500200146E9E70105E3
:1007000010196941DDE9084500196941BDE8F04D5E
:10071000A2E770B521F0004303430CD0C1F30A55A2
:100720000024D5EB040564EB0403D617AD1AB341DE
:1007300002DB0020014670BD201841EB025170BD64
:100740000EB5C10F80EAE0700844CA07002140F2EC
:1007500033438DE80E000A460B46FFF78CFF03B0CB
:1007600000BD000030B5041E71F1000404DB4FF041
:100770000044404264EB0101141E73F1000405DBE8
:100780001C464FF00043524263EB04038B4208BF08
:10079000824230BD30B5041E71F1000404DB4FF01D
:1007A0000044404264EB0101141E73F1000405DBB8
:1007B0001C464FF00043524263EB0403994208BFCA
:1007C000904230BD064C074D06E0E06840F0010362
:1007D00094E8070098471034AC42F6D3FFF78AFC40
:1007E000E0330008003400082DE9F04D00231A46DC
:1007F0001B1A8A4103DB00200146BDE8F08DC1F3DE
:100800000A52C1F3130141F480154FF0000BD107D8
:1008100002D100186D41521E0027044640F2FF111C
:10082000384601EB620A3E468046024600204FF4FD
:100830008011FFF777FCC2197141BB1846EB01002C
:10084000B4EB030C75EB000C04D3E41A65EB000564
:1008500017460E46241908F101006D4180463428E0
:10086000E3DDF91946EB0600091BA84103D24FF05E
:10087000FF32134601E0002213461BEB070046EB54
:100880000A51BDE8F04DFFF7E7BE000070B5044621
:1008900000688168C943C9071CD1816821F0010142
:1008A000816000F059FD05460FE000BF00F054FDE7
:1008B000401B022809D9A06A40F01000A062E06A3B
:1008C00040F00100E062012070BD20688068C043F4
:1008D000C007EBD0002070BD10B50146406A826AA7
:1008E00012F0500F05D0006A026BBDE810400846B8
:1008F0001047816A41F40071816201688968C1F31F
:10090000424107290CD1017B51B9816A21F48071E0
:100910008162816AC90403D4816A41F00101816264
:1009200000F04EF910BD10B5406A816A41F04001F7
:100930008162C16A41F00401C16200F043F910BD57
:1009400010B5406A00F03DF910BD0000F8B5002672
:100950000446009600688168C943C90728D08168A9
:1009600041F001018160134813490068B0FBF1F0C8
:1009700000E0401E00900028FBD100F0EDFC054691
:1009800011E000BF00F0E8FC401B02280BD9A06A70
:1009900040F01000A062E06A40F00100E06284F8DC
:1009A00024600120F8BD20688068C043C007E9D1F9
:1009B0000020F8BD2000002040420F00FEE70000AC
:1009C000014800F0C3BA0000D800002030B590F80C
:1009D00040500124AC40C56B6C60046863604368A0
:1009E000102B036803D099600068C26030BD9A6024
:1009F0000068C16030BD704770470000F8B5002541
:100A00000446009590F82400012808D0012084F8BD
:100A100024002046FFF73AFF060002D04BE00220F8
:100A2000F8BDA06A20F4885040F00200A0620220C5
:100A300000F030FD22490968B1FBF0F0400000E011
:100A4000401E00900028FBD12046FFF77FFF206862
:100A5000816841F00801816000F07EFC074604E0F7
:100A600000F07AFCC01B0A2811D8206880680007B3
:100A7000F6D42068816841F00401816000F06CFCCC
:100A800007460EE000F068FCC01B0A2809D9A06ADE
:100A900020F0020040F01000A06284F824500120F1
:100AA000F8BD206880684007ECD4A06A20F00200FE
:100AB00040F00100A06284F824503046F8BD0000E8
:100AC00020000020F8B50024009490F8242025464A
:100AD000012A12D0012280F824204A681F23072A05
:100AE0000DD20668776B521E02EB820293409F4341
:100AF0000B6893401F43776319E00220F8BD066836
:100B00000D2A0AD2376BD21F02EB820293409F4319
:100B10000B6893401F43376309E0F76A0D3A02EB15
:100B2000820293409F430B6893401F43F7620A6819
:100B3000072306680A2A0AD3F7680A3A02EB420238
:100B400093409F438B6893401F43F76008E03769E9
:100B500002EB420293409F438B6893401F433761EF
:100B60000A68102A01D0112A20D1124B02689A4239
:100B700017D193681B0219D4936843F40003936060
:100B80000968102912D10C490C4A0968B1FBF2F12D
:100B900001EB8101490000E0491E00910029FBD1D1
:100BA00004E0816A41F020018162012480F8245030
:100BB0002046F8BD002401402000002040420F00E4
:100BC00070477047704700002DE9F0414FF0000773
:100BD00004003D467ED0A06A002628B9E66284F86B
:100BE0002460204600F07EF82046FFF74FFEA16A01
:100BF000C90600D420B1A06A40F01000A06269E0EC
:100C0000A16A21F4885141F00201A1626268E169A0
:100C1000237B0A4347EA43010A43A1684FF48077E4
:100C2000B94209D0012907D05FF0000194F814C03F
:100C3000BCF1010F02D00AE03946F7E7F3B1A36A2D
:100C400043F02003A362E36A43F00103E3622368F5
:100C5000D3F804C02CF4694C4CEA010CC3F804C06E
:100C600021688B68DFF870C003EA0C0313438B60C4
:100C7000A168B9420BD0012909D00CE0DFF85CC0B3
:100C8000A3690CEB43330B4343F40061DFE7218A94
:100C90000D05A5F580152168CB6A23F470032B435D
:100CA000CB62216889680E4B1940914208D1E662F7
:100CB000A16A21F0020141F00101A162BDE8F081C9
:100CC000A06A20F0020040F01000A062E06A40F04C
:100CD0000100E0620120F1E7FDF7E1FF00E0FFFF26
:100CE000FE0E1FFF70B586B00025064600950195E3
:100CF0000295039500681A4988422ED119498869DE
:100D000040F400708861886900F40070049088697C
:100D100040F0040088618869694600F0040004908E
:100D200001200090032001900F4800F01FFA104CA2
:100D30000E48C4E900058020C4E90250400020614B
:100D4000800060612020C4E90605204600F0A8F973
:100D500008B1FFF751FE3462666206B070BD000054
:100D60000024014000100240000801400800024039
:100D7000D80000202DE9F047894604463B49006829
:100D80003B4F0E1D9046884201D0B84207D13068D3
:100D900010F4702F03D001252846BDE8F08794F8A1
:100DA000240001280CD0012084F824002046FFF7FD
:100DB000CDFD05004FF0000004D084F82400EBE7DF
:100DC0000220EAE7A16A40F60162914341F4807192
:100DD000A1622168B94218D1326812F4702F14D080
:100DE000A16A41F48011A1623168490505D5A16A63
:100DF00021F4005141F48051A162A16AC9040AD5CD
:100E0000E16A21F00601E16206E0A26A22F48012A2
:100E1000A2624968E9E7E06284F82400216A154883
:100E20008862216A1448C862216A144808632168EC
:100E30006FF0020008602068816841F48071816071
:100E4000216843464A464C31206A00F057F9206831
:100E50008168C1F342410729816803D041F48011C0
:100E6000816099E741F4A001FAE700000024014005
:100E700000280140D9080008410900082709000896
:100E800070B5044690F8240001280DD0012084F8A4
:100E900024002046FFF75AFD02004FF0000005D065
:100EA00084F82400104670BD022070BDA16A40F68F
:100EB0000163994341F48071A162224D2368224964
:100EC000AB4218D10E6816F4702F14D0A66A46F4FF
:100ED0008016A6620E68760505D5A66A26F4005629
:100EE00046F48056A662A66AF6040AD5E66A26F09B
:100EF0000606E66206E0A66A26F48016A6625E682A
:100F0000E9E7E06284F824006FF0020018602068CE
:100F1000436843F02003436020688368C3F342437F
:100F2000072B05D1A84208D1096811F4702F04D00D
:100F3000816841F480118160B4E7816841F4A001C7
:100F4000F9E7000000280140042401402DE9F05F8A
:100F5000C16B0C6801680B68D0F840C0042202FA2B
:100F60000CF2494DDFF824A1494E4A4FDFF828B171
:100F7000DFF828E122422CD05A072AD50A689206C7
:100F800003D40A6822F004020A600168A94201D170
:100F9000042219E0514501D1402215E0B14202D1AD
:100FA0004FF4806210E0B94202D14FF480420BE06E
:100FB000594502D14FF4802206E0714502D14FF429
:100FC000800201E04FF080622F4908394A60C16A0F
:100FD0003BE04FF0020808FA0CF818EA040F4FF053
:100FE00000094FF0010235D05FEA837832D50B68F3
:100FF0009B0605D40B6823F00A030B6080F82120C0
:101000000168A94201D1022219E0514501D12022F3
:1010100015E0B14202D14FF4007210E0B94202D1A2
:101020004FF400520BE0594502D14FF4003206E074
:10103000714502D14FF4001201E04FF000721249E5
:1010400008394A6080F82090816A00291AD0BDE8EA
:10105000F05F0847082505FA0CF5254212D01B075A
:1010600010D50B6823F00E030B6090F84010C36B93
:1010700002FA01F15960826380F8212080F8209003
:10108000016BE2E7BDE8F09F080002401C0002404F
:101090003000024044000240580002406C00024010
:1010A00030B528B308C8134914221944B1FBF2F132
:1010B0008900C16310498163022141771A6843F6B0
:1010C000F0718A43D0E900142143D0E902452C4352
:1010D0002143046921434469214384692143114325
:1010E000196000214163012242770177084630BD33
:1010F000012030BDF8FFFDBF0000024070B504467E
:1011000090F82000002501280CD0012084F8200050
:1011100094F821600020012E06D084F820000225DA
:10112000284670BD022070BD022684F82160A063AD
:101130002068066826F0010606602046FFF746FC98
:10114000E06A00282068016802D041F00E0106E044
:1011500021F0040101602068016841F00A0101608A
:101160002068016841F001010160D9E72DE9F84FDD
:10117000DFF8B891002409F1040A0AF1040B2346B0
:101180000F270BF1040EC9E00125A5402A40AA4211
:101190007DD1674ED1F804C0ACEB0608B44532D01F
:1011A00014DCBCF1030F3AD009DCBCF1000F2AD0EB
:1011B000BCF1010F1CD0BCF1020F31D11DE0BCF11C
:1011C000110F17D0BCF1120F2AD119E0B8F5881F02
:1011D00019D006DCB8F5803F15D0B8F5801F1FD1B7
:1011E00011E0B8F5001F0ED0B8F5041F18D10AE0C1
:1011F000CB6815E0CB681B1D12E0CB6808330FE00D
:10120000CB680C330CE08B682BB1012B4FF008033B
:1012100003D0456104E0042302E0056100E00023FF
:10122000FF2A01D8064601E000F104064FEA8405D2
:1012300001D9A5F12005D6F8008007FA05FC28EAB7
:101240000C0803FA05F548EA0508C6F800804D6861
:10125000ED0062D5374DAE6946F00106AE61AD696D
:1012600024F0030605F001050095334D06EB050C4F
:10127000DCF80850A607360F07FA06F825EA080535
:10128000DFF8B880404503D14FF0000817E044E094
:10129000DFF8AC80404502D14FF001080FE0DFF8E5
:1012A000A480404502D14FF0020808E0DFF89880A2
:1012B000404502D14FF0030801E04FF0040808FA5E
:1012C00006F848EA0508CCF808804D68D9F80060AF
:1012D000ED034D4601D5164300E096432E604D6860
:1012E000DAF80060AD03554601D5164300E0964399
:1012F0002E604D68DBF80060ED025D4601D51643B7
:1013000000E096432E604D68DEF80060AD02754641
:1013100001D5164300E096432E60641C0D682A46F2
:10132000E5407FF431AFBDE8F88F000000040140D4
:1013300000001110001002400000014000080140B0
:10134000000C014000100140001401400AB101618D
:1013500070470904FBE700000148806870470000FF
:1013600014000020024881680278114481607047AF
:1013700014000020074810B5016841F01001016019
:10138000032000F075F8002000F006F800F024F8C3
:10139000002010BD0020024070B50D4D04464FF4F2
:1013A0007A712878B1FBF0F00A490968B1FBF0F0D6
:1013B00000F0C6FB48B9102C07D200222146501E6F
:1013C00000F036F800206C6070BD012070BD000098
:1013D00014000020200000200C4808B5816941F06D
:1013E00001018161816901F001010091C16941F050
:1013F0008051C161C06900F080500090044841688C
:1014000021F0E06141F00071416008BD0010024030
:1014100000000140002809DB00F01F02012191407B
:101420004009800000F1E020C0F800117047000082
:10143000F0B40E4B1B680C46C3F30223C3F107053F
:10144000042D00D90425191D072901D2002300E02D
:10145000DB1E012606FA05F1491E214099409E40F7
:10146000761E16403143F0BC00F04BBF0CED00E09F
:10147000064900F0070208684FF6FF03184040EAEB
:101480000220034A10430860704700000CED00E0A2
:101490000000FA0510B529A401461DCC86B08DE8E0
:1014A0001D002AA02A4C006804900020012923D0A6
:1014B00002293AD010291DD161682268D20119D5BC
:1014C000C1F38342C9031DF8020009D5616804AA6B
:1014D000C1F34041515C1F4AB2FBF1F1484301E0C6
:1014E0001D4948436168490204D440005FF003018C
:1014F000B0FBF1F006B010BD226AC2F30121012950
:1015000003D1920701D5C803F4E7022905D1626A25
:10151000920702D549F64040ECE70329EAD1216859
:101520008903E7D54FF22440E4E700F033F961681E
:10153000C1F38131491C4900DAE7000002030405C8
:10154000060708090A0B0C0D0E0F1010010200000F
:101550000010024000127A0000093D002DE9F84316
:1015600005460078354CC00754D0E0690026C0001D
:1015700008D4E06940F08050E061E069012600F0A5
:10158000805000902E480168C90512D40168804639
:1015900041F480710160FFF7DFFE074605E000BF00
:1015A000FFF7DAFEC01B642823D8D8F80000C00576
:1015B000F6D5206A10F4407021D0A98801F440715A
:1015C00081421CD0206A1F49012220F440700A6029
:1015D00000220A602062C00711D0FFF7BDFE074657
:1015E00041F2883808E000BFFFF7B6FEC11B414555
:1015F00002D90320BDE8F883206A8007F4D5206A69
:10160000696820F44070084320621EB1E06920F050
:101610008050E0612878800705D56068A96820F4CB
:101620004040084360602878C00605D56068E968D6
:1016300020F48000084360600020DBE700100240D7
:1016400000700040400442422DE9F0470F4605007B
:1016500061D0434E306800F00700B84209D23068CC
:1016600020F0070038433060306800F00700B842CF
:1016700051D128683B4C810712D5400703D56068DB
:1016800040F4E06060602878000703D5606840F4AB
:10169000605060606068A96820F0F00008436060F6
:1016A0002878C00728D06868012810D0216802284F
:1016B00010D0890700292EDA616821F00301014367
:1016C0006160FFF749FE804641F288390DE02168EC
:1016D0008903EFE78901EDE7FFF73EFEA0EB080184
:1016E000494502D90320BDE8F0876068696800F0C9
:1016F0000C00B0EB810FEFD1306800F00700B8426A
:101700000BD9306820F0070038433060306800F0B3
:101710000700B84201D00120E5E72878400705D549
:101720006068E96820F4E06008436060287800079A
:1017300006D56068296920F4605040EAC100606005
:1017400000F038F86168084AC1F30311515CC840E1
:101750000649086006480068FFF71EFE0020C2E741
:101760000020024000100240FC320008200000204F
:10177000180000200448054900684968044AC1F37C
:101780000221515CC8407047200000200010024038
:101790000C3300080448054900684968044AC1F34D
:1017A000C221515CC8407047200000200010024058
:1017B0000C33000812A185B00FC98DE80F0014A0EA
:1017C000144A006804905168134801F00C03042B7C
:1017D00010D0082B0ED1C1F38343C9031DF80300B9
:1017E0000AD5516804AAC1F34041515C0A4A5043EA
:1017F000B0FBF1F005B0704708494843FAE7000034
:1018000002030405060708090A0B0C0D0E0F101041
:10181000010200000010024000127A0000093D00A1
:101820002DE9F84F040070D02078C04DC00749D092
:101830006868C0F38100012807D06868C0F38100A0
:10184000022809D16868C00306D52868800339D505
:1018500060680028E7D035E06068B0F5803F0BD0C5
:1018600010B1B0F5A02F11D0286820F48030286086
:10187000286820F4802002E0286840F48030286046
:10188000606890B1FFF768FD06460AE0286840F4FA
:1018900080202860F0E700BFFFF75EFD801B642812
:1018A00073D828688003F7D50CE0FFF755FD06468E
:1018B00005E000BFFFF750FD801B6428F0D82868C2
:1018C0008003F7D420789A4E80074FF001094FF03B
:1018D000000839D5686810F00C0F07D06868C0F3AD
:1018E0008100022809D16868C00306D428688007EF
:1018F00014D52069012808D110E02069B0B1C6F8DC
:101900000090FFF729FD074605E00AE1FFF724FDF7
:10191000C01B0228C4D828688007F7D528686169E9
:1019200020F0F80040EAC10028600DE0C6F8008011
:10193000FFF712FD074604E0FFF70EFDC01B02286B
:1019400023D828688007F7D4207800072CD5794859
:10195000A169D9B1C0F80090FFF7FEFC074604E08A
:10196000FFF7FAFCC01B02280FD8686A8007F7D57A
:1019700071484FF4FA510068B0FBF1F0009000BFDD
:101980000098411E0091FAD20EE080E0C0F800807D
:10199000FFF7E2FC074604E0FFF7DEFCC01B02286D
:1019A00075D8686A8007F7D42078400760D5E86961
:1019B0000027C00008D4E86940F08050E861E86979
:1019C000012700F0805000905C480168C90513D4DD
:1019D0000168834641F480710160FFF7BDFC8246D7
:1019E00006E000BFFFF7B8FCA0EB0A0064284ED861
:1019F000DBF80000C005F5D5E06801280AD008B181
:101A0000052813D0286A20F001002862286A20F0F7
:101A1000040002E0286A40F001002862E06841F218
:101A2000883B98B1FFF798FC82460BE0286A40F0AB
:101A300004002862EEE700BFFFF78EFCA0EB0A016E
:101A400059455AD8286A8007F6D50CE0FFF784FC80
:101A5000824605E0FFF780FCA0EB0A0159454CD80F
:101A6000286A8007F6D41FB1E86920F08050E86149
:101A7000E06988B36968C1F38101022944D0022872
:101A8000C6F8608004D0FFF767FC044638E034E015
:101A9000FFF762FC074604E0FFF75EFCC01B02286C
:101AA0002BD828688001F7D4206AB0F5803F05D193
:101AB0006868A16820F4003008436860D4E9080130
:101AC0000843696821F4741108436860C6F860909F
:101AD000FFF742FC044606E025E000BFFFF73CFCB0
:101AE000001B022809D828688001F7D51BE000BF39
:101AF000FFF732FC001B022802D90320BDE8F88F53
:101B000028688001F4D40EE00128F7D06868226AC2
:101B100000F48031914204D1616A00F4701088426F
:101B200001D00120EAE70020E8E7000000100240B1
:101B30000000424280044242200000200070004029
:101B400010B5401EB0F1807F01D3012010BD4FF0D1
:101B5000E02460610F21601700F0D3FB0020A0613A
:101B600007202061002010BD7047704770B590F8C5
:101B70003C20012A19D0012400F83C4F0222427077
:101B800050F83C3C5A689D6822F070060A68496823
:101B9000324325F0800529435A6050F83C2C91606F
:101BA000447000210170084670BD022070BD10B560
:101BB000040003D094F83D0010B107E0012010BDEF
:101BC000002084F83C00204600F00CF8022084F845
:101BD0003D00211D206800F0B7FA012084F83D0087
:101BE000002010BD08B500680B49884212D10B488F
:101BF000C16941F00401C161C069002200F0040024
:101C0000009011461E20FFF713FCBDE808401E207F
:101C1000FFF700BC08BD00000008004000100240B3
:101C20000168CA6842F00102CA600068816801F078
:101C30000701062903D0016841F00101016000207D
:101C4000704770B5044690F83C00012817D0012574
:101C500084F83C50022084F83D002068826822F01D
:101C6000770222F47F4282600868502830D00DDC71
:101C700020284DD005DC98B310283BD148E0022045
:101C800070BD302844D0402834D139E0602828D0B5
:101C9000702806D0B0F5805F2CD0B0F5005F29D158
:101CA0000AE0CB68D1E90121206800F083FA2068BE
:101CB000816841F0770109E0CB68D1E90121206812
:101CC00000F078FA2068816841F48041816011E079
:101CD000CA684968206800F07FFA5021206807E050
:101CE00016E0CA684968206800F087FA6021206819
:101CF00000F06AFA84F83D50002084F83C0070BD82
:101D0000CA684968206800F067FA40212068EFE758
:101D1000226801461046EBE7704770B5044600683C
:101D200001694FF00005C943890715D4C168C9434B
:101D3000890711D4E91E016101202077206880699C
:101D40008007204602D0FFF7E7FF04E000F098F894
:101D5000204600F096F8257720680169C9434907B5
:101D600017D4C168C943490713D46FF00401016156
:101D7000022020772068806910F4407F204602D03E
:101D8000FFF7CAFF04E000F07BF8204600F079F886
:101D9000257720680169C943090716D4C168C9437A
:101DA000090712D46FF00801016104202077206830
:101DB000C0698007204602D0FFF7AEFF04E000F0C4
:101DC0005FF8204600F05DF8257720680169C94377
:101DD000C90617D4C168C943C90613D46FF01001EE
:101DE0000161082020772068C06910F4407F2046F8
:101DF00002D0FFF791FF04E000F042F8204600F027
:101E000040F8257720680169C943C90708D1C1682E
:101E1000C943C90704D1891E0161204600F032F888
:101E200020680169C943090609D4C168C943090684
:101E300005D46FF0800101612046FFF795FE206810
:101E40000169C943490609D4C168C943490605D493
:101E50006FF040010161204600F020F82068016920
:101E6000C94389060BD4C168C943890607D46FF0FA
:101E7000200101612046BDE87040FFF776BE70BDCD
:101E80007047704700680349884202D10249FF2029
:101E9000087070470008004000000020704770B5CF
:101EA000040004D094F83900002510B106E00120A8
:101EB00070BD84F83850204600F022F8242084F8C1
:101EC00039002068C16821F40051C160204600F04B
:101ED000A7F92068016921F49041016120684169F6
:101EE00021F02A0141612068C16841F40051C160BC
:101EF000E563202084F8390084F83A00002070BDA2
:101F000030B585B0002400940194029403940068D5
:101F10001449884224D11448816941F48041816187
:101F2000816901F480410491816941F0040181617A
:101F300080690E4D00F0040004904FF40070009092
:101F4000022001900320039069462846FFF70EF90E
:101F50002815CDE90004694628460294FFF706F9E2
:101F600005B030BD003801400010024000080140BB
:101F7000FEE700003EB500240D4800940194029451
:101F80000A498460016004730475012505614FF4FA
:101F900060214460C161FEF717FE07200094CDE97F
:101FA000015069460248FEF78DFD3EBD0024014008
:101FB0002800002070B586B000241C4800940194CD
:101FC00002940394816941F010018161816901F0FB
:101FD00010010491816941F020018161816901F062
:101FE00020010491816941F004018161816901F05E
:101FF00004010491816941F0080181618069012235
:1020000000F008000A4E5503049029463046FFF7B9
:102010009DF901200095CDE9010402200390694655
:102020003046FFF7A3F806B070BD00000010024074
:102030000010014010B586B00024124800940194AD
:102040000294039404940E490594016041F61F41E3
:10205000C0E9011440F2E731C0E903148461FFF7DD
:10206000A6FD4FF48050009069460648FFF7E9FD51
:10207000049404A903480594FFF778FD06B010BD49
:102080000008004058000020FEE770477047704786
:10209000FFF768B930B593B028216846FEF759F8C4
:1020A00014210AA8FEF755F8002401200F9410947B
:1020B0001194010412948DE8130004904FF4E01081
:1020C000CDE90810022507956846FFF7A9FB0F2008
:1020D000CDE90A056802CDE90C4002210AA80E9458
:1020E000FFF7B2FAA80311900F950FA8FFF736FA81
:1020F00013B030BD0D48016841F001010160416835
:102100000B4A1140416001680A4A114001600168B0
:1021100021F480210160416821F4FE0141604FF407
:102120001F0181600449C00308607047001002402D
:102130000000FFF8FFFFF6FE08ED00E00148FFF7A2
:10214000ECBD000058000020F0B50268164B174C9B
:10215000174D4FF08047984205D0B84203D0A042B7
:1021600001D0A84203D122F070064A683243984257
:1021700005D0B84203D0A04201D0A84203D122F436
:102180004074CA6822434C6922F0800222430260F4
:102190008A68C2620A688262984201D10969016351
:1021A00001214161F0BD0000002C0140000400400D
:1021B0000008004010B5846842EA032224F47F44FA
:1021C0000A432243826010BD826822F070020A43F3
:1021D00042F007018160704710B5036A046A24F079
:1021E00001040462846924F0F00444EA021423F038
:1021F0000A020A438461026210BD10B5036A23F02B
:10220000100303628369046A23F4704343EA0232D1
:1022100024F0A00343EA01118261016210BD0000B5
:102220002DE9F041044600680169E26821F440515B
:10223000114301612169A06808436169084321686D
:10224000CA6841F20C639A430243CA60206841693C
:10225000A26921F44071114341611E49206864253F
:102260003226884202D1FFF795FA01E0FFF782FAA1
:1022700000EBC00101EB001160686FF018078000EF
:10228000B1FBF0F2B2FBF5F2B1FBF0F37A4303EBF2
:102290008202B1FBF0F306EB0212B2FBF5F2B3FBE4
:1022A000F5F302F0F00202EB0312B1FBF0F3B1FB25
:1022B000F0F0B0FBF5F0784303EB800006EB001084
:1022C000B0FBF5F0216800F00F0010448860BDE815
:1022D000F081000000380140FEE7490050EAC120CB
:1022E00018BF04204A0D18BF40F0010040F2FF72F1
:1022F000B2EB515F08BF40F00200012808BF052083
:1023000070470907090E002804DB00F1E02080F87F
:102310000014704700F00F0000F1E02080F8141D59
:1023200070472DE9F0414F1E00EBC7010446D1E98B
:10233000000115461E4637F006020DD02A463346E8
:10234000FDF7F7FF7F1E04EBC703D3E90023FDF77A
:1023500049FF37F00602F1D1022F25D0042F13D008
:10236000062F18BFBDE8F0812A463346FDF7E1FF8E
:10237000D4E90A23FDF736FF2A463346FDF7D9FF95
:10238000D4E90823FDF72EFF2A463346FDF7D1FF97
:10239000D4E90623FDF726FF2A463346FDF7C9FF99
:1023A000D4E90423FDF71EFF2A463346FDF7C1FF9B
:1023B000D4E90223FDF716FF2A463346FDF7B9FF9D
:1023C000D4E90023BDE8F041FDF70CBF002213461D
:1023D00010460149FEF71FB80000F03F0122FEF74A
:1023E00098B9FDF7FFBE0022134610461146FEF7CE
:1023F00012B840F2013200204FF0E041FEF789B9F7
:10240000024A00201107FEF784B9000001FDFFFF1A
:1024100002E008C8121F08C1002AFAD170477047AD
:10242000002001E001C1121F002AFBD1704700000B
:102430000149086070470000240000202DE9F04D9C
:10244000C84A002490B0914205DA21F0004393423B
:1024500001D805D120B110B0BDE8F04DFFF7BEBFE7
:10246000B1F5801F1BDA53EA000209D0002911DA06
:102470000120FFF7DDFF10B0BDE8F04DFFF7B3BF5F
:102480000220FFF7D5FFFFF7A1FF10B081F0004158
:10249000BDE8F08D6FF035043622FEF73AF904EB13
:1024A0002152C1F31308B049A2F2FF33414401F4B1
:1024B000801282F07F6103EB225281F04051009242
:1024C00041EA08010022A94BFDF72DFF044608F15F
:1024D0000200A74EC0F313000D467E44032867D2C6
:1024E000D6E900232046FEF73DF91ED100980028CA
:1024F00002BFD6E9000110B0BDE8F08DFEF720F96B
:1025000007460C469B4A9C4BFDF713FF06460D46BB
:102510009A4A9B4B38462146FDF70BFF10B03246D6
:102520002B46BDE8F04DFDF75DBE4FF05532954BA3
:1025300020462946FDF7FDFE0022934BFDF7F6FEEF
:1025400006460F4622462B4610461946FDF7F1FE79
:1025500032463B46FDF7EDFE064600980F46F0B1C9
:10256000FEF7EEF880468A46824A834BFDF7E1FE8D
:1025700032463B46FDF7DAFE22462B46FDF7D3FEF8
:1025800005460C467D4A7E4B40465146FDF7D1FE3E
:1025900010B02A462346BDE8F04DFDF7C4BE0B46F9
:1025A00010B0324620462946BDE8F04DFDF7BBBECF
:1025B00000224FF080432046FDF714FE02460B46F2
:1025C00020462946FDF727FF06460F460098FEF7EE
:1025D000B7F8CDE9040132463B4610463946FDF7CF
:1025E000A8FE0C9069480C9A4044019009910B4652
:1025F0001046FDF79EFE8246024665488B46C8F1AE
:1026000051080B4608F5D72803217844FFF789FEC7
:1026100052465B46FDF78DFE0A905E480D9152468C
:102620005B4604217844FFF77CFE099B0C9AFDF77A
:1026300080FE844601980D9B40EA080860460A9A8D
:10264000FDF7D0FD83460891B8F1000F4EDD4FF045
:10265000FF3220462946FEF75CF822462B46FDF75E
:1026600068FE804600988A4660B3DDE90401414A6D
:10267000414BFDF75EFE099100905A464046514697
:10268000089BFDF7AFFD32463B46FDF752FE099B26
:10269000009AFDF7A7FD42465346FDF747FE224646
:1026A0002B46FDF740FE04460D46DDE90401334AA2
:1026B000334BFDF73EFE10B022462B46BDE8F04DF1
:1026C000FDF731BE5A464046089BFDF78BFD32466A
:1026D0003B46FDF72EFE42465346FDF727FE10B05F
:1026E00022462B46BDE8F04DFDF720BE009840B3D2
:1026F000DDE904011F4A204BFDF71BFE80468A4698
:102700005A4620462946089BFDF70DFE32463B46B9
:10271000FDF70FFE42465346FDF705FE22462B46C7
:10272000FDF701FE04460D46DDE90401134A144B92
:10273000FDF7FFFD10B022462B46BDE8F04DFDF73A
:10274000F2BD0B465A4620462946FDF7ECFD3246BF
:102750003B46FDF7EEFD10B022462B46BDE8F04D9E
:10276000FDF7E4BD0000F07F645F09000000F03F6A
:10277000FA0E0000763C7935EF39EA3D0000E0FEC4
:10278000422EE63F5555D53F0000E03F86EBF9FF6E
:102790000A0D0000080D000008B5FEF7EBFDFFF77D
:1027A00079FCFFF707FC4048416941F001014161B4
:1027B0004069002200F00100009011460B20FEF756
:1027C00037FE0B20FEF726FEFFF7D4FBFFF732FCA7
:1027D00037483649002501604FF41651C0E901150C
:1027E0000C21C560C0E904518561C561FFF757FB45
:1027F0002F487038FEF702F92D4801222D49703814
:10280000FEF7B8FA2A487038FEF73AFB28484038F5
:10281000FFF706FA274CA41E20780028FCD0244895
:102820007038FEF72DFB23480088FDF768FE02464E
:102830000B4600202049FDF7EEFD204E00223346D6
:10284000FDF771FD02460B4600201D49FDF7E3FD33
:10285000FDF762FE6060FDF74DFE01461948FDF789
:1028600083FCA060FDF771FEFFF7E8FD164A174BE9
:10287000FDF75FFD4FF02042154BFDF7CCFD002228
:102880003346FDF7AFFCFDF773FEE060FDF75DFE3C
:1028900002460B4600200F4900F01EF8FDF73CFEF3
:1028A00020612570B8E700000010024000380140A8
:1028B000980000200200002000FEAF400000F03F22
:1028C0000088C34000504347E17A14AE47E1DA3F45
:1028D0009999E93F000024402DE9F04D1D460C4632
:1028E00098B0174621F0004123F00043002814BFA0
:1028F0004FF0010C4FF0000C0CEB440CFE4A0CEBBB
:1029000002064FEA620C66452BD33E0018BF012633
:1029100006EB45061644F94A964222D3F84A53EA92
:10292000070C02D0944205D148B918B000201146D6
:10293000BDE8F08D002808BF4FF0000C01D04FF02B
:10294000010C0CEB440212F5001F0AD8002F14BF33
:102950004FF0010C4FF0000C0CEB450212F5001F7C
:1029600007D918B03A462B462146BDE8F04DFFF78F
:1029700038BD0022DFF88CA3002CB8BF534526DAFF
:10298000DFF884C36345A8BF022220DADFF870C3F2
:102990009C451CDCDFF874C30CEB235CBCF1140F0A
:1029A00008DDCCF1340627FA06FC0CFA06F6BE4226
:1029B0000DD108E05FB9CCF1140623FA06FC0CFA3D
:1029C00006F69E4203D10CF00102C2F1020251EA66
:1029D000000C19D1002D17DA002C18BF022A01D0E3
:1029E000012A07D00220FFF723FD18B0BDE8F04D03
:1029F000FFF7ECBC0220FFF71BFDFFF7E7FC18B068
:102A000081F00041BDE8F08DB7F1000C6CD1534569
:102A100025D104F1804212F5801201BF0028002068
:102A2000B74918B008BFBDE8F08DB548884207DC4B
:102A3000002DA1BF6046294618B0BDE8F08D07E023
:102A4000281E05DA80F0004118B06046BDE8F08D20
:102A5000AF497944D1E9000118B0BDE8F08DDFF845
:102A6000A0C2634525D1002D1FDA19B1514512D1FD
:102A7000D8B909E0002840F0EC82A24A214618B0FB
:102A800062F31E01BDE8F08D0020214618B060F30E
:102A90001E01BDE8F08D08DA18B02346BDE8F04D00
:102AA000024600206146FDF7B6BC18B02146BDE8DD
:102AB000F08D514518DAB5F1804F0DD0A5F1005CCD
:102AC000BCF1FF5C10D1B4F1000C0DDB18B0614615
:102AD000BDE8F04D00F0ECBB234618B00246BDE85F
:102AE000F04D1946FDF725BC060024F0004C3BD103
:102AF000D9B1514533D1002C06DD002DA1BF0020F6
:102B0000514618B0BDE8F08D002C01DD002D1BDB17
:102B1000002C13DA002D11DB012A4FF0000014BF46
:102B200078497C4918B0BDE8F08D022A18BF002C06
:102B30000AD0012A08D1002C06DA0AE0002CB8BF1E
:102B4000002D11DA012A04D0002018B00146BDE89A
:102B5000F08D18B000204FF00041BDE8F08DA1F1DC
:102B60004050B0F17F601AD0012000EBE47050EAD1
:102B7000020421D0624C521E4FF0000B104304BFE0
:102B80004FF0000B644C654883427CDD644A654825
:102B900093421FDD884217DB002D25DB37E0002C38
:102BA00000DA4AB1022A0CBF01204FF0FF3018B002
:102BB000BDE8F04DFDF7C4BD0120FFF739FC18B0AA
:102BC000BDE8F04DFFF70FBC4D4A8A4202DC002DF4
:102BD0000ADC1CE0814202DA002D18DA04E0484BDE
:102BE000994220DD002D12DD0220FFF721FCFFF7C6
:102BF00000FC05460E460022534658462146FDF786
:102C000098FB18B066F31E012846BDE8F08D02203F
:102C1000FFF70EFCFFF7F4FB0A46214618B062F3FB
:102C20001E01BDE8F08D002230466146FDF77BFBBA
:102C300080460E466FF00102FDF76BFD4FF05532F6
:102C4000394BFDF773FB42463346FDF772FB00221A
:102C5000364BFDF76BFB82464246334604911046E5
:102C60001946FDF766FB5246049BFDF762FB8A4658
:102C700000904FF0C0422E4B40463146FDF759FBC5
:102C80002C4A2B4B00E027E0CDE906015146009885
:102C9000FDF74FFB82460191274A284B40463146BB
:102CA000FDF747FB5246019BFDF73DFB82460B4675
:102CB00002460591DDE90601FDF794FADDE90623F8
:102CC000002688463046FDF72EFB5246059BFDF751
:102CD0002DFB024600F07EB90020B1F5801F07DA17
:102CE000352230466146FDF714FD06466FF034008C
:102CF00000EB215024E00000FFFF1F00FFFF0F004A
:102D00000000F03F0000F07F0000404301FCFFFFA7
:102D1000820900000000F0FF0000F0BF0000E04169
:102D20000000F043FFFFEF3F5555D53F0000E03F67
:102D30004715F73FFE822B6544DF5DF80BAE543E2E
:102D4000A0F2FF300190C1F3130040F07F6141F029
:102D500040510291FE498842D8BF002004DDFD4960
:102D60008142C8BF012001DD0D9008E000200D90D8
:102D70000198401C01900298A0F5801002900299E1
:102D8000F54878440B910D9900EBC100D0E9002380
:102D90000F9330460A920B99FDF7C5FACDE906016B
:102DA000DDE90A2130460F9BFDF71CFA02460B466F
:102DB0000020EA49FDF72FFB059102460B460090E3
:102DC000DDE90601FDF7B5FA1490E5488A464FF0B3
:102DD000000878440299006812904FF0005040EAD1
:102DE00061010D980F9B01EB804000F500210991D6
:102DF0000A9A1298FDF797FA32460B9BFDF796FA5E
:102E000042465346FDF795FA064602914046514622
:102E1000099B129AFDF78DFADDE90623FDF786FA84
:102E20003246029BFDF77FFA059B009AFDF781FA77
:102E30000091149A0490534610461946FDF779FA0A
:102E400006460246C7480B46029106217844FFF722
:102E500068FACDE90510029B324610461946FDF787
:102E600068FADDE90532FDF764FA05910646534636
:102E700040461946149AFDF7B5F9009B049AFDF7F0
:102E800058FA3246059BFDF7ADF9CDE905104246EB
:102E9000534610461946FDF74CFA0022B24B0291F8
:102EA0000A90FDF79FF9DDE90532FDF79BF90E4623
:102EB0004246AD4B4046FDF736FA029B0A9AFDF7B3
:102EC00032FADDE90532FDF731FA424602910A9005
:102ED000334610465146FDF72CFACDE9060153461C
:102EE000149A02990A98FDF724FA8A46029033460A
:102EF000424600990498FDF71CFA5346029AFDF7E2
:102F000071F982460B4602460591DDE90601FDF79F
:102F100069F9DDE90623002088460646FDF703FA35
:102F20005246059BFDF702FA824609914FF0604236
:102F30008E4B30464146FDF7FCF9049006918C4AD1
:102F40008A4B50460999FDF7F4F982460291894A65
:102F5000894B30464146FDF7ECF95246029BFDF79E
:102F600041F9864B7B440D9A03EBC203D3E900235E
:102F7000FDF738F90E9007910198FDF7E1FB0591F7
:102F8000DDE9061382460E9A0498FDF72BF97C4A78
:102F90007A440D9B02EBC303D3E900230093029212
:102FA000FDF720F95246059BFDF71CF900268846DF
:102FB00052463046059BFDF7B6F9009B029AFDF795
:102FC000B2F9069B049AFDF7AEF9079B0E9AFDF73E
:102FD000ADF9024600200B46029038462946FDF71F
:102FE000A8F9824601912B4638461946029AFDF708
:102FF0009AF932464346FDF79CF95246019BFDF78C
:10300000F1F807468A463246434629460298FDF7BC
:1030100090F905460E463A465346FDF7E3F8594AFD
:103020008846914221DBA8EB020353EA000210D14B
:103030002A463346FDF777F9CDE90401524A534B4E
:1030400038465146FDF7CEF8DDE90423FDF7A2FB33
:1030500021D20220FFF7ECF9FFF7CBF90A4621460F
:1030600018B062F31E01BDE8F08D494B28F0004214
:103070009A4210D3474A08EB020353EA00027FF456
:10308000C6AD2A463346FDF74EF93A465346FDF79C
:1030900081FB7FF6BCAD0022019228F000403E4942
:1030A0003E4A01EB2051824223DA481C4FF4801142
:1030B00021FA00F040443A4AC0F30A517A44394BAD
:1030C000A1F2FF31CB4020EA0303C0F3130040F428
:1030D0008010C1F11401C84012680190B8F1000FCE
:1030E000BCBF4042019028463146FDF71CF9054619
:1030F0000E462A46334638465146FDF773F84FF0E0
:1031000000084246284B40460591FDF712F9CDE9EB
:103110000601264A264B40460599FDF70AF900911B
:1031200002902A46334640460599FDF7FCF83A4698
:103130005346FDF7FBF81F4A1F4BFDF7FAF8009BBB
:10314000029AFDF74FF80746884602460B4635E0DF
:103150008E9803007AB60B00CA0500000000F03F0D
:1031600002060000300500000000084009C7EE3FDD
:10317000FD033ADCF5015B14E02F3EBE08040000BD
:10318000CC03000000009040FE822B654715973C61
:1031900000CC904000346F3F01FCFFFF0000E03F97
:1031A00018030000FFFF0F00432EE63F396CA80C08
:1031B000615C20BEEF39FAFE422EE63FDDE90601F2
:1031C000FDF710F8DDE9062305460E46FDF7ABF8DE
:1031D0003A464346FDF7AAF80F462A463346009082
:1031E00010461946FDF7A5F8824602462E48884645
:1031F0000B4605217844FFF794F852464346FDF705
:1032000098F82A463346FDF791F880468A463B46B1
:1032100028463146009AFDF78CF83B46009AFCF7A9
:10322000E1FF0691009000224FF080434046514656
:10323000FDF779F80F460C90424653462846314632
:10324000FDF777F83B460C9AFDF7E5F8069B009AE8
:10325000FDF769F82A463346FDF765F80022134B5F
:10326000FDF764F8054601980E4601EB005108157C
:10327000002810DC28463146019AFDF74AFAFFF78C
:103280002CF8042808BFFFF7BBF828463146019AFE
:10329000FDF73FFA05460B4618B02A465846214628
:1032A000BDE8F04DFDF745B8B80100000000F03F63
:1032B0002DE9F04106460F46FDF796FA041E0D462D
:1032C00018BF0120284320F00040C0F17F6000F1CA
:1032D000E040C00F0ED0301C18BF0120384320F052
:1032E0000040C0F17F6000F1E040C00F04BF01204A
:1032F000FFF79EF820462946BDE8F0810000000057
:103300000000000001020304060708090000000095
:10331000010203040000000004FA97999999D93F2B
:10332000AF788E1DC571CC3F9FC678D0099AC33F38
:10333000935555555555E53F599322942449D23F0D
:10334000DE03CB966446C73F44523EDF12F1C23FD4
:10335000000000000000F03F000000000000F83F07
:1033600000000000000000000000004003B8E23F41
:10337000000000000000000006D0CF43EBFD4C3EF3
:10338000033333333333E33FFFAB6FDBB66DDB3FE8
:103390004D268F515555D53F01411DA96074D13F30
:1033A00065DBC9934A86CD3FEF4E454A287ECA3F2A
:1033B0003E5555555555C53F93BDBE166CC166BFAC
:1033C0002CDE25AF6A56113FF16BD2C541BDBBBEA5
:1033D000D0A4BE726937663E000000000000000005
:1033E000003400080000002028000000102400081D
:1033F0002834000828000020F804000020240008D9
:10340000FF000000000000000000000000000000BD
:10341000000000000100000010000000000000009B
:083420000024F400000000008C
:04000005080000ED02
:00000001FF
